:100000000C9434000C943E000C943E000C943E0082
:100010000C943E000C943E000C943E000C943E0068
:100020000C943E000C943E000C943E000C943E0058
:100030000C943E000C943E000C943E000C943E0048
:100040000C943E000C943E000C943E000C943E0038
:100050000C943E000C943E000C943E000C943E0028
:100060000C943E000C943E0011241FBECFEFD8E04C
:10007000DEBFCDBF0E9440000C945C000C940000D9
:1000800080E284B915B888EC90E02D9B13C015B8B8
:100090002C99C2962B99C29730E020E02817390797
:1000A000A4F7EFE9FFE03197F1F700C000002F5F00
:0C00B0003F4FF4CF2D9AECCFF894FFCF17
:00000001FF
